:100000004BC0000068C0000066C0000064C0000073
:1000100062C0000060C000005EC000005CC0000064
:100020005AC0000058C0000056C0000054C0000074
:1000300052C0000050C000004EC000004CC0000084
:100040004AC0000048C00000FFC2000044C00000D9
:1000500042C000006AC3000023C300003CC000008F
:100060003AC0000038C0000036C0000034C00000B4
:1000700032C0000030C000002EC000002CC00000C4
:1000800008C40000C1C3000026C0000024C0000056
:1000900022C00000D103850411241FBECFEFD0E1A0
:1000A000DEBFCDBF21E0A0E0B1E001C01D92A436CB
:1000B000B207E1F710E0C8E9D0E000E005C0229700
:1000C0000109FE010BBF45D4C439D10780E0080700
:1000D000B1F702D056C494CFCF93DF93CDB7DEB73C
:1000E000ED970FB6F894DEBF0FBECDBF8FEF8AB984
:1000F00084B98FE08DAF198E188E1B8E1A8E1D8ECF
:100100001C8E1092C50090E19093C40082E0809311
:10011000C000E2ECF0E0208126602083E1ECF0E01A
:100120002081286920831A8219821C821B821E82E8
:100130001D821092CD009093CC008093C800EAEC11
:10014000F0E0808186608083E9ECF0E0808188695E
:10015000808362E0CE01CD9657D00F2EFFE0CF2EE8
:10016000F2E2DF2EE12CF12CF02D00E012E220E093
:1001700030E041E067E0CE01CD96D8D065E6CE0113
:10018000019620D364E6CE01489668D210E00F2E87
:10019000F1EACF2EFAE0DF2EE12CF12CF02D07E072
:1001A0006894662463F86894772471F80F2EF3E05E
:1001B0008F2EF02D6894992492F80F2EF5E0AF2E33
:1001C000F02D0F2EF6E0BF2EF02DCFA6D8AAE9AA6B
:1001D000FAAA0BAB6CAA1DAA7EAA8FAA98AEA9AEEA
:1001E000BAAE0BAF1CAF1F5FBE01615D7F4FCE018A
:1001F000CD96BED12FEF89E698E121508040904006
:10020000E1F700C00000E1CF4F925F926F927F92C2
:100210008F929F92AF92BF92CF92DF92EF92FF9216
:100220000F931F93CF93DF932C0181E08093D8002D
:100230001092DA001092DB001092DF001092DE00C4
:10024000E2018881882309F44AC0712C0F2EFDEE4B
:10025000CF2ED12CF02DEFEEF0E0AEEEB0E00F2E71
:10026000F3EFEF2EF12CF02D02EF10E061EF70E0D4
:1002700040EF50E027EF30E086EF90E00F2EF5EFF3
:10028000AF2EB12CF02D0F2EF4EF8F2E912CF02DE0
:10029000672C660C660C660C660CE60168821082A0
:1002A0006C901C926080DFE76D2260826080CFEBF3
:1002B0006C226082E7011882E8011882EB01188243
:1002C000EA011882E9011882EC011882E50118821E
:1002D000E40118827394E20168807614C8F2EBEDB1
:1002E000F0E0808180628083808180618083808172
:1002F00080688083E8EDF0E0808182608083E9EDB2
:10030000F0E0808182FFFDCF81E0DF91CF911F91EE
:100310000F91FF90EF90DF90CF90BF90AF909F90A4
:100320008F907F906F905F904F900895CF92DF9263
:10033000EF92FF920F931F93CF93DF93CDB7DEB76A
:1003400028970FB6F894DEBF0FBECDBFFC018081A9
:10035000861708F4FBC0EDEEF0E08081962F9295B1
:10036000907F9083C01AD10AE20AF30AC094D09415
:10037000E094F094CD82DE82EF82F8865F81529520
:10038000569557709885990F990F990F950F9093DF
:10039000F7005E815295569557709F81990F990F7E
:1003A000990F950F9093F6005D8152955695577071
:1003B0009E81990F990F990F950F9093F5009D814C
:1003C000990F990F990FE4EFF0E0908391E09083FB
:1003D0000C211D212E213F2109831A832B833C836D
:1003E0002B812295269527709C81990F990F990F43
:1003F000920F9093F3002A812295269527709B8176
:10040000990F990F990F920F9093F20029812295DD
:10041000269527709A81990F990F990F920F9093B3
:10042000F1009981990F990F990F9093F000EFEED9
:10043000F0E0908190619083413081F120F0423072
:1004400009F086C055C0683080F4EEEDF0E0908190
:1004500021E030E0A90102C0440F551F6A95E2F780
:10046000BA0160956923608310C0EFEDF0E09081E0
:1004700070E06850710921E030E002C0220F331FA4
:100480006A95E2F7209529232083EFEEF0E0908132
:100490009F77908390819F7B908353C0683078F4DE
:1004A000EEEDF0E0908121E030E0A90102C0440FC0
:1004B000551F6A95E2F7BA01692B608310C0EFED12
:1004C000F0E0908170E06850710941E050E09A01DD
:1004D00002C0220F331F6A95E2F7292B2083EFEE2B
:1004E000F0E090819F77908390819064908329C001
:1004F000683078F4EEEDF0E0908121E030E0A90181
:1005000002C0440F551F6A95E2F7BA01692B608358
:1005100010C0EFEDF0E0908170E06850710941E0AB
:1005200050E09A0102C0220F331F6A95E2F7292B8F
:100530002083EFEEF0E090819068908390819F7B24
:100540009083807F8093ED0081E003C080E001C054
:1005500080E028960FB6F894DEBF0FBECDBFDF91C6
:10056000CF911F910F91FF90EF90DF90CF90089562
:10057000CF93DF9300D000D0CDB7DEB7FB01ADEE57
:10058000B0E08C9184818295807F8C9385812FEE61
:1005900030E0D9018C9380819181A281B3818983DC
:1005A0009A83AB83BC839B819295969597708C813F
:1005B000880F880F880F890F8093F3009A81929596
:1005C000969597708B81880F880F880F890F80937D
:1005D000F20099819295969597708A81880F880F7D
:1005E000880F890F8093F1008981880F880F880F09
:1005F0008093F000D9018C9180618C938581882350
:1006000071F020E08AEF90E0DF01A20FB11D169695
:100610003C91DC013C932F5F35812317A8F3EFEE6B
:10062000F0E080818F7780838081806480838091F7
:10063000EE0085B1805885B980E00F900F900F9043
:100640000F90DF91CF9108951F920F920FB60F92E6
:1006500011240F900FBE0F901F901895E62F209138
:100660002E0130912F01C901019665E170E05ED144
:1006700040913001509131018417950779F0D901EB
:10068000A75EBE4FEC9390932F0180932E01E1EC77
:10069000F0E080818062808381E0089580E00895A9
:1006A0001F920F920FB60F9211240BB60F922F9339
:1006B0003F935F936F937F938F939F93AF93BF937A
:1006C000EF93FF93F8948091300190913101209144
:1006D0002E0130912F012817390779F0FC01E75ED0
:1006E000FE4F2081019665E170E020D190933101A9
:1006F000809330012093C60005C0E1ECF0E08081DA
:100700008F7D80837894FF91EF91BF91AF919F91FE
:100710008F917F916F915F913F912F910F900BBEC1
:100720000F900FBE0F901F9018951F920F920FB64B
:100730000F9211242F933F934F935F936F937F9367
:100740008F939F93AF93BF93EF93F894E091C6007C
:100750002091150130911601C901019665E170E003
:10076000E5D040911701509118018417950741F089
:10077000D901A050BF4FEC939093160180931501BF
:100780007894EF91BF91AF919F918F917F916F91ED
:100790005F914F913F912F910F900FBE0F901F903F
:1007A000189510922F0110922E0110923101109283
:1007B000300110921601109215011092180110923A
:1007C00017010895E62F2091600130916101C90160
:1007D000019665E170E0AAD04091620150916301F9
:1007E0008417950779F0D901A55BBE4FEC939093E0
:1007F000610180936001E9ECF0E080818062808398
:1008000081E0089580E008951F920F920FB60F9235
:1008100011240BB60F922F933F935F936F937F93A7
:100820008F939F93AF93BF93EF93FF93F89480912F
:10083000620190916301209160013091610128175C
:10084000390779F0FC01E55BFE4F2081019665E1F7
:1008500070E06CD090936301809362012093CE008E
:1008600005C0E9ECF0E080818F7D80837894FF9172
:10087000EF91BF91AF919F918F917F916F915F9118
:100880003F912F910F900BBE0F900FBE0F901F90B6
:1008900018951F920F920FB60F9211242F933F932A
:1008A0004F935F936F937F938F939F93AF93BF9378
:1008B000EF93F894E091CE002091470130914801E8
:1008C000C901019665E170E031D040914901509134
:1008D0004A018417950741F0D901AE5CBE4FEC93F5
:1008E00090934801809347017894EF91BF91AF9125
:1008F0009F918F917F916F915F914F913F912F9138
:100900000F900FBE0F901F901895109261011092DA
:1009100060011092630110926201109248011092DE
:10092000470110924A0110924901089597FB072E42
:1009300016F4009406D077FD08D00FD007FC05D040
:100940003EF4909581959F4F0895709561957F4FE6
:1009500008950790F691E02D0994AA1BBB1B51E165
:1009600007C0AA1FBB1FA617B70710F0A61BB70B1F
:10097000881F991F5A95A9F780959095BC01CD01C4
:060980000895F894FFCF7A
:00000001FF
