S011000043414E4472697665722E73726563D5
S11300004BC0000068C0000066C0000064C000006F
S113001062C0000060C000005EC000005CC0000060
S11300205AC0000058C0000056C0000054C0000070
S113003052C0000050C000004EC000004CC0000080
S11300404AC0000048C000006EC2000044C0000066
S113005042C00000D4C2000070C200003CC00000D6
S11300603AC0000038C0000036C0000034C00000B0
S113007032C0000030C000002EC000002CC00000C0
S113008074C300002DC3000026C0000024C000007B
S113009022C000005F03150411241FBECFEFD0E17E
S11300A0DEBFCDBF21E0A0E0B1E001C01D92A436C7
S11300B0B207E1F710E0C8E9D0E000E005C02297FC
S11300C00109FE010BBFD5D3C439D10780E008076D
S11300D0B1F702D0E6C394CFCF93DF93CDB7DEB7A9
S11300E0ED970FB6F894DEBF0FBECDBF8FEF8AB980
S11300F084B98FE08DAF198E188E1B8E1A8E1D8ECB
S11301001C8E1092C50020E12093C40092E09093CD
S1130110C0008091C20086608093C2008091C100BB
S113012088698093C1001A8219821C821B821E82F4
S11301301D821092CD002093CC009093C800809132
S1130140CA0086608093CA008091C9008869809340
S1130150C9005E012DE3A20EB11C62E0C501B8D056
S11301608FE0C82E82E2D82EE12CF12C00E012E2BE
S113017020E030E041E067E0C501F8D065E6CE015B
S113018001962CD364E6CE01489672D210E091EA2F
S1130190C92E9AE0D92EE12CF12C07E028E0422E5A
S11301A032E0532E43E0642E54E0752E65E0862E33
S11301B076E0972ECFA6D8AAE9AAFAAA0BAB4CAA46
S11301C01DAA5EAA6FAA78AE89AE9AAE0BAF1CAF19
S11301D01F5FBE01615D7F4FC5017DD18FEF99E641
S11301E028E1815090402040E1F700C00000E2CFB8
S11301F0CF93DF9300D000D0CDB7DEB769837A8385
S11302008B839C838B818295869587709C8128E063
S1130210929F800D11248093F3008A8182958695A4
S113022087709B8128E0929F800D11248093F200B7
S113023089818295869587709A8128E0929F800DA6
S113024011248093F1008981880F880F880F80938F
S1130250F000EFEEF0E080818061808381E00F9018
S11302600F900F900F90DF91CF910895EFEEF0E093
S113027080818F77808380818F7B808381E0089564
S1130280EFEEF0E080818F778083808180648083CB
S113029081E00895883068F49091DE0021E030E038
S11302A0082E01C0220F0A94EAF7922B9093DE00E5
S11302B00DC04091DF0090E0089721E030E001C0DC
S11302C0220F8A95EAF7422B4093DF0081E00895DC
S11302D01F93CF93DF93EC0181E08093D8001092B9
S11302E0DA001092DB001092DF001092DE0010E0C2
S11302F01DC0812F8295807F8093ED001092EF00C6
S11303008091EE001092EE00B1DF1092F300109293
S1130310F2001092F1001092F0001092F700109287
S1130320F6001092F5001092F4001F5F88811817F0
S113033000F38091DB0080628093DB008091DB001E
S113034080618093DB008091DB0080688093DB0018
S11303508091D80082608093D8008091D90082FF78
S1130360FCCF81E0DF91CF911F9108956F927F922E
S11303708F929F92AF92BF92CF92DF92EF92FF92B1
S11303800F931F93CF93DF9300D000D01F92CDB76C
S1130390DEB7762EFC018081861708F487C0609052
S11303A0ED00862F8295807F8093ED0046015701F2
S11303B0801A910AA20AB30A80949094A094B094EB
S11303C089829A82AB82BC828B8182958695877062
S11303D09C81F8E09F9F800D11248093F7008A810F
S11303E08295869587709B8158E0959F800D112496
S11303F08093F60089818295869587709A81E8E0DA
S11304009E9F800D11248093F5008981880F880FA9
S1130410880F8093F40081E08093F400C501B40157
S113042060237123822393234D83E2DE4D81413087
S113043039F118F04230D1F527C0F7E0F71570F024
S11304402091DE0081E090E0072C01C0880F0A941F
S1130450EAF7809582238093DE0010C04091DF008C
S1130460272D30E02850310981E090E001C0880F49
S11304702A95EAF7809584238093DF00F7DE10C085
S1130480872D08DFFDDE0CC0872D04DF8091EF008F
S113049080688093EF008091EF008F7B8093EF0062
S11304A0862D807F8093ED0081E001C080E00F9075
S11304B00F900F900F900F90DF91CF911F910F919C
S11304C0FF90EF90DF90CF90BF90AF909F908F9070
S11304D07F906F900895CF93DF93EB018091ED00AF
S11304E08C818295807F8093ED008D818093EF00D5
S11304F0688179818A819B817BDE80E007C0FE016F
S1130500E80FF11D96819093FA008F5F9D81891702
S1130510B0F3B6DE8091EE0085B1805885B980E0F5
S1130520DF91CF9108951F920F920FB60F9211246D
S11305300F900FBE0F901F9018951F920F920FB639
S11305400F9211240BB60F922F933F935F936F93E7
S11305507F938F939F93AF93BF93EF93FF93F894FD
S1130560809130019091310120912E0130912F0121
S11305702817390779F0FC01E75EFE4F20810196C8
S113058065E170E063D19093310180933001209351
S1130590C60005C08091C1008F7D8093C10078940E
S11305A0FF91EF91BF91AF919F918F917F916F9147
S11305B05F913F912F910F900BBE0F900FBE0F9044
S11305C01F901895CF93DF93FC01EB0125893689A1
S11305D0C901019665E170E039D14789508D8417CE
S11305E0950749F04881DF01A20FB31F4C93968B06
S11305F0858B81E001C080E0DF91CF9108951F9247
S11306000F920FB60F9211240BB60F922F933F93B4
S11306104F935F936F937F938F939F93AF93BF9306
S1130620EF93FF93CF93DF931F92CDB7DEB7F89488
S11306308091C6008983BE016F5F7F4F80E091E0A7
S1130640C1DF78940F90DF91CF91FF91EF91BF912B
S1130650AF919F918F917F916F915F914F913F9156
S11306602F910F900BBE0F900FBE0F901F901895F7
S1130670CF93DF931F92CDB7DEB7698380912E01AC
S113068090912F01019665E170E0E0D02091300156
S1130690309131018217930769F0BE016F5F7F4F7C
S11306A089E191E08FDF8091C10080628093C10075
S11306B081E001C080E00F90DF91CF910895109206
S11306C02F0110922E0110923101109230011092DC
S11306D01601109215011092180110921701089535
S11306E01F920F920FB60F9211240BB60F922F93F5
S11306F03F935F936F937F938F939F93AF93BF9336
S1130700EF93FF93F894809162019091630120919B
S11307106001309161012817390779F0FC01E55B2C
S1130720FE4F2081019665E170E090D090936301C3
S1130730809362012093CE0005C08091C9008F7D13
S11307408093C9007894FF91EF91BF91AF919F91ED
S11307508F917F916F915F913F912F910F900BBE7D
S11307600F900FBE0F901F9018951F920F920FB607
S11307700F9211240BB60F922F933F934F935F93D5
S11307806F937F938F939F93AF93BF93EF93FF9355
S1130790CF93DF931F92CDB7DEB7F8948091CE004C
S11307A08983BE016F5F7F4F82E391E00BDF789412
S11307B00F90DF91CF91FF91EF91BF91AF919F91F6
S11307C08F917F916F915F914F913F912F910F90F6
S11307D00BBE0F900FBE0F901F901895CF93DF9311
S11307E01F92CDB7DEB7698380916001909161015A
S11307F0019665E170E02AD0209162013091630195
S11308008217930769F0BE016F5F7F4F8BE491E01D
S1130810D9DE8091C90080628093C90081E001C063
S113082080E00F90DF91CF910895109261011092B2
S113083060011092630110926201109248011092BB
S1130840470110924A0110924901089597FB072E1F
S113085016F4009406D077FD08D00FD007FC05D01D
S11308603EF4909581959F4F0895709561957F4FC3
S113087008950790F691E02D0994AA1BBB1B51E142
S113088007C0AA1FBB1FA617B70710F0A61BB70BFC
S1130890881F991F5A95A9F780959095BC01CD01A1
S10908A00895F894FFCF57
S9030000FC
